{
  "_format": "hh-sol-artifact-1",
  "contractName": "RibusTokenV2",
  "sourceName": "src/contracts/RibusTokenV2.sol",
  "abi": [
    {
      "inputs": [
        {
          "internalType": "address",
          "name": "forwarder",
          "type": "address"
        }
      ],
      "stateMutability": "nonpayable",
      "type": "constructor"
    },
    {
      "anonymous": false,
      "inputs": [
        {
          "indexed": false,
          "internalType": "address",
          "name": "previousAdmin",
          "type": "address"
        },
        {
          "indexed": false,
          "internalType": "address",
          "name": "newAdmin",
          "type": "address"
        }
      ],
      "name": "AdminChanged",
      "type": "event"
    },
    {
      "anonymous": false,
      "inputs": [
        {
          "indexed": true,
          "internalType": "address",
          "name": "owner",
          "type": "address"
        },
        {
          "indexed": true,
          "internalType": "address",
          "name": "spender",
          "type": "address"
        },
        {
          "indexed": false,
          "internalType": "uint256",
          "name": "value",
          "type": "uint256"
        }
      ],
      "name": "Approval",
      "type": "event"
    },
    {
      "anonymous": false,
      "inputs": [
        {
          "indexed": true,
          "internalType": "address",
          "name": "beacon",
          "type": "address"
        }
      ],
      "name": "BeaconUpgraded",
      "type": "event"
    },
    {
      "anonymous": false,
      "inputs": [
        {
          "indexed": false,
          "internalType": "uint8",
          "name": "version",
          "type": "uint8"
        }
      ],
      "name": "Initialized",
      "type": "event"
    },
    {
      "anonymous": false,
      "inputs": [
        {
          "indexed": true,
          "internalType": "address",
          "name": "previousOwner",
          "type": "address"
        },
        {
          "indexed": true,
          "internalType": "address",
          "name": "newOwner",
          "type": "address"
        }
      ],
      "name": "OwnershipTransferred",
      "type": "event"
    },
    {
      "anonymous": false,
      "inputs": [
        {
          "indexed": false,
          "internalType": "address",
          "name": "account",
          "type": "address"
        }
      ],
      "name": "Paused",
      "type": "event"
    },
    {
      "anonymous": false,
      "inputs": [
        {
          "indexed": true,
          "internalType": "address",
          "name": "from",
          "type": "address"
        },
        {
          "indexed": true,
          "internalType": "address",
          "name": "to",
          "type": "address"
        },
        {
          "indexed": false,
          "internalType": "uint256",
          "name": "value",
          "type": "uint256"
        }
      ],
      "name": "Transfer",
      "type": "event"
    },
    {
      "anonymous": false,
      "inputs": [
        {
          "indexed": false,
          "internalType": "address",
          "name": "account",
          "type": "address"
        }
      ],
      "name": "Unpaused",
      "type": "event"
    },
    {
      "anonymous": false,
      "inputs": [
        {
          "indexed": true,
          "internalType": "address",
          "name": "implementation",
          "type": "address"
        }
      ],
      "name": "Upgraded",
      "type": "event"
    },
    {
      "inputs": [
        {
          "internalType": "address",
          "name": "owner",
          "type": "address"
        },
        {
          "internalType": "address",
          "name": "spender",
          "type": "address"
        }
      ],
      "name": "allowance",
      "outputs": [
        {
          "internalType": "uint256",
          "name": "",
          "type": "uint256"
        }
      ],
      "stateMutability": "view",
      "type": "function"
    },
    {
      "inputs": [
        {
          "internalType": "address",
          "name": "spender",
          "type": "address"
        },
        {
          "internalType": "uint256",
          "name": "amount",
          "type": "uint256"
        }
      ],
      "name": "approve",
      "outputs": [
        {
          "internalType": "bool",
          "name": "",
          "type": "bool"
        }
      ],
      "stateMutability": "nonpayable",
      "type": "function"
    },
    {
      "inputs": [
        {
          "internalType": "address",
          "name": "account",
          "type": "address"
        }
      ],
      "name": "balanceOf",
      "outputs": [
        {
          "internalType": "uint256",
          "name": "",
          "type": "uint256"
        }
      ],
      "stateMutability": "view",
      "type": "function"
    },
    {
      "inputs": [
        {
          "internalType": "uint256",
          "name": "amount",
          "type": "uint256"
        }
      ],
      "name": "burn",
      "outputs": [],
      "stateMutability": "nonpayable",
      "type": "function"
    },
    {
      "inputs": [
        {
          "internalType": "address",
          "name": "account",
          "type": "address"
        },
        {
          "internalType": "uint256",
          "name": "amount",
          "type": "uint256"
        }
      ],
      "name": "burnFrom",
      "outputs": [],
      "stateMutability": "nonpayable",
      "type": "function"
    },
    {
      "inputs": [],
      "name": "decimals",
      "outputs": [
        {
          "internalType": "uint8",
          "name": "",
          "type": "uint8"
        }
      ],
      "stateMutability": "pure",
      "type": "function"
    },
    {
      "inputs": [
        {
          "internalType": "address",
          "name": "spender",
          "type": "address"
        },
        {
          "internalType": "uint256",
          "name": "subtractedValue",
          "type": "uint256"
        }
      ],
      "name": "decreaseAllowance",
      "outputs": [
        {
          "internalType": "bool",
          "name": "",
          "type": "bool"
        }
      ],
      "stateMutability": "nonpayable",
      "type": "function"
    },
    {
      "inputs": [
        {
          "internalType": "address[]",
          "name": "wallets",
          "type": "address[]"
        },
        {
          "internalType": "uint256[]",
          "name": "percentages",
          "type": "uint256[]"
        }
      ],
      "name": "distribute",
      "outputs": [],
      "stateMutability": "nonpayable",
      "type": "function"
    },
    {
      "inputs": [
        {
          "internalType": "address",
          "name": "spender",
          "type": "address"
        },
        {
          "internalType": "uint256",
          "name": "addedValue",
          "type": "uint256"
        }
      ],
      "name": "increaseAllowance",
      "outputs": [
        {
          "internalType": "bool",
          "name": "",
          "type": "bool"
        }
      ],
      "stateMutability": "nonpayable",
      "type": "function"
    },
    {
      "inputs": [],
      "name": "initialize",
      "outputs": [],
      "stateMutability": "nonpayable",
      "type": "function"
    },
    {
      "inputs": [
        {
          "internalType": "address",
          "name": "forwarder",
          "type": "address"
        }
      ],
      "name": "isTrustedForwarder",
      "outputs": [
        {
          "internalType": "bool",
          "name": "",
          "type": "bool"
        }
      ],
      "stateMutability": "view",
      "type": "function"
    },
    {
      "inputs": [],
      "name": "name",
      "outputs": [
        {
          "internalType": "string",
          "name": "",
          "type": "string"
        }
      ],
      "stateMutability": "view",
      "type": "function"
    },
    {
      "inputs": [],
      "name": "owner",
      "outputs": [
        {
          "internalType": "address",
          "name": "",
          "type": "address"
        }
      ],
      "stateMutability": "view",
      "type": "function"
    },
    {
      "inputs": [],
      "name": "paused",
      "outputs": [
        {
          "internalType": "bool",
          "name": "",
          "type": "bool"
        }
      ],
      "stateMutability": "view",
      "type": "function"
    },
    {
      "inputs": [],
      "name": "proxiableUUID",
      "outputs": [
        {
          "internalType": "bytes32",
          "name": "",
          "type": "bytes32"
        }
      ],
      "stateMutability": "view",
      "type": "function"
    },
    {
      "inputs": [],
      "name": "renounceOwnership",
      "outputs": [],
      "stateMutability": "nonpayable",
      "type": "function"
    },
    {
      "inputs": [],
      "name": "symbol",
      "outputs": [
        {
          "internalType": "string",
          "name": "",
          "type": "string"
        }
      ],
      "stateMutability": "view",
      "type": "function"
    },
    {
      "inputs": [],
      "name": "totalSupply",
      "outputs": [
        {
          "internalType": "uint256",
          "name": "",
          "type": "uint256"
        }
      ],
      "stateMutability": "view",
      "type": "function"
    },
    {
      "inputs": [
        {
          "internalType": "address",
          "name": "to",
          "type": "address"
        },
        {
          "internalType": "uint256",
          "name": "amount",
          "type": "uint256"
        }
      ],
      "name": "transfer",
      "outputs": [
        {
          "internalType": "bool",
          "name": "",
          "type": "bool"
        }
      ],
      "stateMutability": "nonpayable",
      "type": "function"
    },
    {
      "inputs": [
        {
          "internalType": "address",
          "name": "from",
          "type": "address"
        },
        {
          "internalType": "address",
          "name": "to",
          "type": "address"
        },
        {
          "internalType": "uint256",
          "name": "amount",
          "type": "uint256"
        }
      ],
      "name": "transferFrom",
      "outputs": [
        {
          "internalType": "bool",
          "name": "",
          "type": "bool"
        }
      ],
      "stateMutability": "nonpayable",
      "type": "function"
    },
    {
      "inputs": [
        {
          "internalType": "address",
          "name": "newOwner",
          "type": "address"
        }
      ],
      "name": "transferOwnership",
      "outputs": [],
      "stateMutability": "nonpayable",
      "type": "function"
    },
    {
      "inputs": [
        {
          "internalType": "address",
          "name": "newImplementation",
          "type": "address"
        }
      ],
      "name": "upgradeTo",
      "outputs": [],
      "stateMutability": "nonpayable",
      "type": "function"
    },
    {
      "inputs": [
        {
          "internalType": "address",
          "name": "newImplementation",
          "type": "address"
        },
        {
          "internalType": "bytes",
          "name": "data",
          "type": "bytes"
        }
      ],
      "name": "upgradeToAndCall",
      "outputs": [],
      "stateMutability": "payable",
      "type": "function"
    },
    {
      "inputs": [],
      "name": "version",
      "outputs": [
        {
          "internalType": "string",
          "name": "",
          "type": "string"
        }
      ],
      "stateMutability": "pure",
      "type": "function"
    }
  ],
  "bytecode": "0x60c06040523073ffffffffffffffffffffffffffffffffffffffff1660809073ffffffffffffffffffffffffffffffffffffffff168152503480156200004457600080fd5b5060405162003e9a38038062003e9a83398181016040528101906200006a919062000113565b80808073ffffffffffffffffffffffffffffffffffffffff1660a08173ffffffffffffffffffffffffffffffffffffffff168152505050505062000145565b600080fd5b600073ffffffffffffffffffffffffffffffffffffffff82169050919050565b6000620000db82620000ae565b9050919050565b620000ed81620000ce565b8114620000f957600080fd5b50565b6000815190506200010d81620000e2565b92915050565b6000602082840312156200012c576200012b620000a9565b5b60006200013c84828501620000fc565b91505092915050565b60805160a051613d13620001876000396000610bdd0152600081816107d401528181610863015281816109a801528181610a370152610ae70152613d136000f3fe60806040526004361061014b5760003560e01c8063572b6c05116100b65780638da5cb5b1161006f5780638da5cb5b1461047157806395d89b411461049c578063a457c2d7146104c7578063a9059cbb14610504578063dd62ed3e14610541578063f2fde38b1461057e5761014b565b8063572b6c05146103755780635c975abb146103b257806370a08231146103dd578063715018a61461041a57806379cc6790146104315780638129fc1c1461045a5761014b565b80633659cfe6116101085780633659cfe614610274578063395093511461029d57806342966c68146102da5780634f1ef2861461030357806352d1902d1461031f57806354fd4d501461034a5761014b565b806306fdde0314610150578063095ea7b31461017b57806318160ddd146101b857806323b872dd146101e35780632929abe614610220578063313ce56714610249575b600080fd5b34801561015c57600080fd5b506101656105a7565b6040516101729190612673565b60405180910390f35b34801561018757600080fd5b506101a2600480360381019061019d919061273d565b610639565b6040516101af9190612798565b60405180910390f35b3480156101c457600080fd5b506101cd61065c565b6040516101da91906127c2565b60405180910390f35b3480156101ef57600080fd5b5061020a600480360381019061020591906127dd565b610666565b6040516102179190612798565b60405180910390f35b34801561022c57600080fd5b5061024760048036038101906102429190612a3b565b610695565b005b34801561025557600080fd5b5061025e6107cd565b60405161026b9190612acf565b60405180910390f35b34801561028057600080fd5b5061029b60048036038101906102969190612aea565b6107d2565b005b3480156102a957600080fd5b506102c460048036038101906102bf919061273d565b61095b565b6040516102d19190612798565b60405180910390f35b3480156102e657600080fd5b5061030160048036038101906102fc9190612b17565b610992565b005b61031d60048036038101906103189190612bf9565b6109a6565b005b34801561032b57600080fd5b50610334610ae3565b6040516103419190612c6e565b60405180910390f35b34801561035657600080fd5b5061035f610b9c565b60405161036c9190612673565b60405180910390f35b34801561038157600080fd5b5061039c60048036038101906103979190612aea565b610bd9565b6040516103a99190612798565b60405180910390f35b3480156103be57600080fd5b506103c7610c31565b6040516103d49190612798565b60405180910390f35b3480156103e957600080fd5b5061040460048036038101906103ff9190612aea565b610c49565b60405161041191906127c2565b60405180910390f35b34801561042657600080fd5b5061042f610c92565b005b34801561043d57600080fd5b506104586004803603810190610453919061273d565b610d1a565b005b34801561046657600080fd5b5061046f610d3a565b005b34801561047d57600080fd5b50610486610e66565b6040516104939190612c98565b60405180910390f35b3480156104a857600080fd5b506104b1610e90565b6040516104be9190612673565b60405180910390f35b3480156104d357600080fd5b506104ee60048036038101906104e9919061273d565b610f22565b6040516104fb9190612798565b60405180910390f35b34801561051057600080fd5b5061052b6004803603810190610526919061273d565b610f99565b6040516105389190612798565b60405180910390f35b34801561054d57600080fd5b5061056860048036038101906105639190612cb3565b610fbc565b60405161057591906127c2565b60405180910390f35b34801561058a57600080fd5b506105a560048036038101906105a09190612aea565b611043565b005b6060603680546105b690612d22565b80601f01602080910402602001604051908101604052809291908181526020018280546105e290612d22565b801561062f5780601f106106045761010080835404028352916020019161062f565b820191906000526020600020905b81548152906001019060200180831161061257829003601f168201915b5050505050905090565b60008061064461113b565b905061065181858561114a565b600191505092915050565b6000603554905090565b60008061067161113b565b905061067e858285611315565b6106898585856113a1565b60019150509392505050565b61069d61113b565b73ffffffffffffffffffffffffffffffffffffffff166106bb610e66565b73ffffffffffffffffffffffffffffffffffffffff1614610711576040517f08c379a000000000000000000000000000000000000000000000000000000000815260040161070890612da0565b60405180910390fd5b600061071b61065c565b1461072557600080fd5b6000805b825181101561076d5782818151811061074557610744612dc0565b5b6020026020010151826107589190612e1e565b9150808061076590612e74565b915050610729565b508151835114801561077f5750606481145b6107be576040517f08c379a00000000000000000000000000000000000000000000000000000000081526004016107b590612f09565b60405180910390fd5b6107c88383611625565b505050565b600090565b7f000000000000000000000000000000000000000000000000000000000000000073ffffffffffffffffffffffffffffffffffffffff163073ffffffffffffffffffffffffffffffffffffffff161415610861576040517f08c379a000000000000000000000000000000000000000000000000000000000815260040161085890612f9b565b60405180910390fd5b7f000000000000000000000000000000000000000000000000000000000000000073ffffffffffffffffffffffffffffffffffffffff166108a06117ce565b73ffffffffffffffffffffffffffffffffffffffff16146108f6576040517f08c379a00000000000000000000000000000000000000000000000000000000081526004016108ed9061302d565b60405180910390fd5b6108ff81611825565b61095881600067ffffffffffffffff81111561091e5761091d612835565b5b6040519080825280601f01601f1916602001820160405280156109505781602001600182028036833780820191505090505b5060006118a4565b50565b60008061096661113b565b90506109878185856109788589610fbc565b6109829190612e1e565b61114a565b600191505092915050565b6109a361099d61113b565b82611a21565b50565b7f000000000000000000000000000000000000000000000000000000000000000073ffffffffffffffffffffffffffffffffffffffff163073ffffffffffffffffffffffffffffffffffffffff161415610a35576040517f08c379a0000000000000000000000000000000000000000000000000000000008152600401610a2c90612f9b565b60405180910390fd5b7f000000000000000000000000000000000000000000000000000000000000000073ffffffffffffffffffffffffffffffffffffffff16610a746117ce565b73ffffffffffffffffffffffffffffffffffffffff1614610aca576040517f08c379a0000000000000000000000000000000000000000000000000000000008152600401610ac19061302d565b60405180910390fd5b610ad382611825565b610adf828260016118a4565b5050565b60007f000000000000000000000000000000000000000000000000000000000000000073ffffffffffffffffffffffffffffffffffffffff163073ffffffffffffffffffffffffffffffffffffffff1614610b73576040517f08c379a0000000000000000000000000000000000000000000000000000000008152600401610b6a906130bf565b60405180910390fd5b7f360894a13ba1a3210667c828492db98dca3e2076cc3735a920a3ca505d382bbc60001b905090565b60606040518060400160405280600581526020017f322e302e30000000000000000000000000000000000000000000000000000000815250905090565b60007f000000000000000000000000000000000000000000000000000000000000000073ffffffffffffffffffffffffffffffffffffffff168273ffffffffffffffffffffffffffffffffffffffff16149050919050565b600061015f60009054906101000a900460ff16905090565b6000603360008373ffffffffffffffffffffffffffffffffffffffff1673ffffffffffffffffffffffffffffffffffffffff168152602001908152602001600020549050919050565b610c9a61113b565b73ffffffffffffffffffffffffffffffffffffffff16610cb8610e66565b73ffffffffffffffffffffffffffffffffffffffff1614610d0e576040517f08c379a0000000000000000000000000000000000000000000000000000000008152600401610d0590612da0565b60405180910390fd5b610d186000611bfa565b565b610d2c82610d2661113b565b83611315565b610d368282611a21565b5050565b6000610d466001611cc0565b90508015610d6a576001600060016101000a81548160ff0219169083151502179055505b610dde6040518060400160405280600a81526020017f5269627573546f6b656e000000000000000000000000000000000000000000008152506040518060400160405280600381526020017f5249420000000000000000000000000000000000000000000000000000000000815250611db0565b610de6611e0d565b610dee611e5e565b610df6611eb7565b610dfe611f08565b6311e1a300610191819055508015610e635760008060016101000a81548160ff0219169083151502179055507f7f26b83ff96e1f2b6a682f133852f6798a09c465da95921460cefb38474024986001604051610e5a9190613124565b60405180910390a15b50565b6000609760009054906101000a900473ffffffffffffffffffffffffffffffffffffffff16905090565b606060378054610e9f90612d22565b80601f0160208091040260200160405190810160405280929190818152602001828054610ecb90612d22565b8015610f185780601f10610eed57610100808354040283529160200191610f18565b820191906000526020600020905b815481529060010190602001808311610efb57829003601f168201915b5050505050905090565b600080610f2d61113b565b90506000610f3b8286610fbc565b905083811015610f80576040517f08c379a0000000000000000000000000000000000000000000000000000000008152600401610f77906131b1565b60405180910390fd5b610f8d828686840361114a565b60019250505092915050565b600080610fa461113b565b9050610fb18185856113a1565b600191505092915050565b6000603460008473ffffffffffffffffffffffffffffffffffffffff1673ffffffffffffffffffffffffffffffffffffffff16815260200190815260200160002060008373ffffffffffffffffffffffffffffffffffffffff1673ffffffffffffffffffffffffffffffffffffffff16815260200190815260200160002054905092915050565b61104b61113b565b73ffffffffffffffffffffffffffffffffffffffff16611069610e66565b73ffffffffffffffffffffffffffffffffffffffff16146110bf576040517f08c379a00000000000000000000000000000000000000000000000000000000081526004016110b690612da0565b60405180910390fd5b600073ffffffffffffffffffffffffffffffffffffffff168173ffffffffffffffffffffffffffffffffffffffff16141561112f576040517f08c379a000000000000000000000000000000000000000000000000000000000815260040161112690613243565b60405180910390fd5b61113881611bfa565b50565b6000611145611f61565b905090565b600073ffffffffffffffffffffffffffffffffffffffff168373ffffffffffffffffffffffffffffffffffffffff1614156111ba576040517f08c379a00000000000000000000000000000000000000000000000000000000081526004016111b1906132d5565b60405180910390fd5b600073ffffffffffffffffffffffffffffffffffffffff168273ffffffffffffffffffffffffffffffffffffffff16141561122a576040517f08c379a000000000000000000000000000000000000000000000000000000000815260040161122190613367565b60405180910390fd5b80603460008573ffffffffffffffffffffffffffffffffffffffff1673ffffffffffffffffffffffffffffffffffffffff16815260200190815260200160002060008473ffffffffffffffffffffffffffffffffffffffff1673ffffffffffffffffffffffffffffffffffffffff168152602001908152602001600020819055508173ffffffffffffffffffffffffffffffffffffffff168373ffffffffffffffffffffffffffffffffffffffff167f8c5be1e5ebec7d5bd14f71427d1e84f3dd0314c0f7b2291e5b200ac8c7c3b9258360405161130891906127c2565b60405180910390a3505050565b60006113218484610fbc565b90507fffffffffffffffffffffffffffffffffffffffffffffffffffffffffffffffff811461139b578181101561138d576040517f08c379a0000000000000000000000000000000000000000000000000000000008152600401611384906133d3565b60405180910390fd5b61139a848484840361114a565b5b50505050565b600073ffffffffffffffffffffffffffffffffffffffff168373ffffffffffffffffffffffffffffffffffffffff161415611411576040517f08c379a000000000000000000000000000000000000000000000000000000000815260040161140890613465565b60405180910390fd5b600073ffffffffffffffffffffffffffffffffffffffff168273ffffffffffffffffffffffffffffffffffffffff161415611481576040517f08c379a0000000000000000000000000000000000000000000000000000000008152600401611478906134f7565b60405180910390fd5b61148c838383611f93565b6000603360008573ffffffffffffffffffffffffffffffffffffffff1673ffffffffffffffffffffffffffffffffffffffff16815260200190815260200160002054905081811015611513576040517f08c379a000000000000000000000000000000000000000000000000000000000815260040161150a90613589565b60405180910390fd5b818103603360008673ffffffffffffffffffffffffffffffffffffffff1673ffffffffffffffffffffffffffffffffffffffff1681526020019081526020016000208190555081603360008573ffffffffffffffffffffffffffffffffffffffff1673ffffffffffffffffffffffffffffffffffffffff16815260200190815260200160002060008282546115a89190612e1e565b925050819055508273ffffffffffffffffffffffffffffffffffffffff168473ffffffffffffffffffffffffffffffffffffffff167fddf252ad1be2c89b69c2b068fc378daa952ba7f163c4a11628f55a4df523b3ef8460405161160c91906127c2565b60405180910390a361161f848484611f98565b50505050565b61162d61113b565b73ffffffffffffffffffffffffffffffffffffffff1661164b610e66565b73ffffffffffffffffffffffffffffffffffffffff16146116a1576040517f08c379a000000000000000000000000000000000000000000000000000000000815260040161169890612da0565b60405180910390fd5b60006116ab61065c565b146116b557600080fd5b60005b82518110156117c95760008382815181106116d6576116d5612dc0565b5b6020026020010151905060008383815181106116f5576116f4612dc0565b5b60200260200101519050600073ffffffffffffffffffffffffffffffffffffffff168273ffffffffffffffffffffffffffffffffffffffff161415801561173d575060008114155b61177c576040517f08c379a0000000000000000000000000000000000000000000000000000000008152600401611773906135f5565b60405180910390fd5b60006117a760646117998461019154611f9d90919063ffffffff16565b611fb390919063ffffffff16565b90506117b38382611fc9565b50505080806117c190612e74565b9150506116b8565b505050565b60006117fc7f360894a13ba1a3210667c828492db98dca3e2076cc3735a920a3ca505d382bbc60001b61212a565b60000160009054906101000a900473ffffffffffffffffffffffffffffffffffffffff16905090565b61182d61113b565b73ffffffffffffffffffffffffffffffffffffffff1661184b610e66565b73ffffffffffffffffffffffffffffffffffffffff16146118a1576040517f08c379a000000000000000000000000000000000000000000000000000000000815260040161189890612da0565b60405180910390fd5b50565b6118d07f4910fdfa16fed3260ed0e7147f7cc6da11a60208b5b9406d12a635614ffd914360001b612134565b60000160009054906101000a900460ff16156118f4576118ef8361213e565b611a1c565b8273ffffffffffffffffffffffffffffffffffffffff166352d1902d6040518163ffffffff1660e01b815260040160206040518083038186803b15801561193a57600080fd5b505afa92505050801561196b57506040513d601f19601f820116820180604052508101906119689190613641565b60015b6119aa576040517f08c379a00000000000000000000000000000000000000000000000000000000081526004016119a1906136e0565b60405180910390fd5b7f360894a13ba1a3210667c828492db98dca3e2076cc3735a920a3ca505d382bbc60001b8114611a0f576040517f08c379a0000000000000000000000000000000000000000000000000000000008152600401611a0690613772565b60405180910390fd5b50611a1b8383836121f7565b5b505050565b600073ffffffffffffffffffffffffffffffffffffffff168273ffffffffffffffffffffffffffffffffffffffff161415611a91576040517f08c379a0000000000000000000000000000000000000000000000000000000008152600401611a8890613804565b60405180910390fd5b611a9d82600083611f93565b6000603360008473ffffffffffffffffffffffffffffffffffffffff1673ffffffffffffffffffffffffffffffffffffffff16815260200190815260200160002054905081811015611b24576040517f08c379a0000000000000000000000000000000000000000000000000000000008152600401611b1b90613896565b60405180910390fd5b818103603360008573ffffffffffffffffffffffffffffffffffffffff1673ffffffffffffffffffffffffffffffffffffffff168152602001908152602001600020819055508160356000828254611b7c91906138b6565b92505081905550600073ffffffffffffffffffffffffffffffffffffffff168373ffffffffffffffffffffffffffffffffffffffff167fddf252ad1be2c89b69c2b068fc378daa952ba7f163c4a11628f55a4df523b3ef84604051611be191906127c2565b60405180910390a3611bf583600084611f98565b505050565b6000609760009054906101000a900473ffffffffffffffffffffffffffffffffffffffff16905081609760006101000a81548173ffffffffffffffffffffffffffffffffffffffff021916908373ffffffffffffffffffffffffffffffffffffffff1602179055508173ffffffffffffffffffffffffffffffffffffffff168173ffffffffffffffffffffffffffffffffffffffff167f8be0079c531659141344cd1fd0a4f28419497f9722a3daafe3b4186f6b6457e060405160405180910390a35050565b60008060019054906101000a900460ff1615611d375760018260ff16148015611cef5750611ced30612223565b155b611d2e576040517f08c379a0000000000000000000000000000000000000000000000000000000008152600401611d259061395c565b60405180910390fd5b60009050611dab565b8160ff1660008054906101000a900460ff1660ff1610611d8c576040517f08c379a0000000000000000000000000000000000000000000000000000000008152600401611d839061395c565b60405180910390fd5b816000806101000a81548160ff021916908360ff160217905550600190505b919050565b600060019054906101000a900460ff16611dff576040517f08c379a0000000000000000000000000000000000000000000000000000000008152600401611df6906139ee565b60405180910390fd5b611e098282612246565b5050565b600060019054906101000a900460ff16611e5c576040517f08c379a0000000000000000000000000000000000000000000000000000000008152600401611e53906139ee565b60405180910390fd5b565b600060019054906101000a900460ff16611ead576040517f08c379a0000000000000000000000000000000000000000000000000000000008152600401611ea4906139ee565b60405180910390fd5b611eb56122c7565b565b600060019054906101000a900460ff16611f06576040517f08c379a0000000000000000000000000000000000000000000000000000000008152600401611efd906139ee565b60405180910390fd5b565b600060019054906101000a900460ff16611f57576040517f08c379a0000000000000000000000000000000000000000000000000000000008152600401611f4e906139ee565b60405180910390fd5b611f5f612328565b565b6000611f6c33610bd9565b15611f8057601436033560601c9050611f8f565b611f88612395565b9050611f90565b5b90565b505050565b505050565b60008183611fab9190613a0e565b905092915050565b60008183611fc19190613a97565b905092915050565b600073ffffffffffffffffffffffffffffffffffffffff168273ffffffffffffffffffffffffffffffffffffffff161415612039576040517f08c379a000000000000000000000000000000000000000000000000000000000815260040161203090613b14565b60405180910390fd5b61204560008383611f93565b80603560008282546120579190612e1e565b9250508190555080603360008473ffffffffffffffffffffffffffffffffffffffff1673ffffffffffffffffffffffffffffffffffffffff16815260200190815260200160002060008282546120ad9190612e1e565b925050819055508173ffffffffffffffffffffffffffffffffffffffff16600073ffffffffffffffffffffffffffffffffffffffff167fddf252ad1be2c89b69c2b068fc378daa952ba7f163c4a11628f55a4df523b3ef8360405161211291906127c2565b60405180910390a361212660008383611f98565b5050565b6000819050919050565b6000819050919050565b61214781612223565b612186576040517f08c379a000000000000000000000000000000000000000000000000000000000815260040161217d90613ba6565b60405180910390fd5b806121b37f360894a13ba1a3210667c828492db98dca3e2076cc3735a920a3ca505d382bbc60001b61212a565b60000160006101000a81548173ffffffffffffffffffffffffffffffffffffffff021916908373ffffffffffffffffffffffffffffffffffffffff16021790555050565b6122008361239d565b60008251118061220d5750805b1561221e5761221c83836123ec565b505b505050565b6000808273ffffffffffffffffffffffffffffffffffffffff163b119050919050565b600060019054906101000a900460ff16612295576040517f08c379a000000000000000000000000000000000000000000000000000000000815260040161228c906139ee565b60405180910390fd5b81603690805190602001906122ab929190612537565b5080603790805190602001906122c2929190612537565b505050565b600060019054906101000a900460ff16612316576040517f08c379a000000000000000000000000000000000000000000000000000000000815260040161230d906139ee565b60405180910390fd5b61232661232161113b565b611bfa565b565b600060019054906101000a900460ff16612377576040517f08c379a000000000000000000000000000000000000000000000000000000000815260040161236e906139ee565b60405180910390fd5b600061015f60006101000a81548160ff021916908315150217905550565b600033905090565b6123a68161213e565b8073ffffffffffffffffffffffffffffffffffffffff167fbc7cd75a20ee27fd9adebab32041f755214dbc6bffa90cc0225b39da2e5c2d3b60405160405180910390a250565b60606123f783612223565b612436576040517f08c379a000000000000000000000000000000000000000000000000000000000815260040161242d90613c38565b60405180910390fd5b6000808473ffffffffffffffffffffffffffffffffffffffff168460405161245e9190613c9f565b600060405180830381855af49150503d8060008114612499576040519150601f19603f3d011682016040523d82523d6000602084013e61249e565b606091505b50915091506124c68282604051806060016040528060278152602001613cb7602791396124d0565b9250505092915050565b606083156124e057829050612530565b6000835111156124f35782518084602001fd5b816040517f08c379a00000000000000000000000000000000000000000000000000000000081526004016125279190612673565b60405180910390fd5b9392505050565b82805461254390612d22565b90600052602060002090601f01602090048101928261256557600085556125ac565b82601f1061257e57805160ff19168380011785556125ac565b828001600101855582156125ac579182015b828111156125ab578251825591602001919060010190612590565b5b5090506125b991906125bd565b5090565b5b808211156125d65760008160009055506001016125be565b5090565b600081519050919050565b600082825260208201905092915050565b60005b838110156126145780820151818401526020810190506125f9565b83811115612623576000848401525b50505050565b6000601f19601f8301169050919050565b6000612645826125da565b61264f81856125e5565b935061265f8185602086016125f6565b61266881612629565b840191505092915050565b6000602082019050818103600083015261268d818461263a565b905092915050565b6000604051905090565b600080fd5b600080fd5b600073ffffffffffffffffffffffffffffffffffffffff82169050919050565b60006126d4826126a9565b9050919050565b6126e4816126c9565b81146126ef57600080fd5b50565b600081359050612701816126db565b92915050565b6000819050919050565b61271a81612707565b811461272557600080fd5b50565b60008135905061273781612711565b92915050565b600080604083850312156127545761275361269f565b5b6000612762858286016126f2565b925050602061277385828601612728565b9150509250929050565b60008115159050919050565b6127928161277d565b82525050565b60006020820190506127ad6000830184612789565b92915050565b6127bc81612707565b82525050565b60006020820190506127d760008301846127b3565b92915050565b6000806000606084860312156127f6576127f561269f565b5b6000612804868287016126f2565b9350506020612815868287016126f2565b925050604061282686828701612728565b9150509250925092565b600080fd5b7f4e487b7100000000000000000000000000000000000000000000000000000000600052604160045260246000fd5b61286d82612629565b810181811067ffffffffffffffff8211171561288c5761288b612835565b5b80604052505050565b600061289f612695565b90506128ab8282612864565b919050565b600067ffffffffffffffff8211156128cb576128ca612835565b5b602082029050602081019050919050565b600080fd5b60006128f46128ef846128b0565b612895565b90508083825260208201905060208402830185811115612917576129166128dc565b5b835b81811015612940578061292c88826126f2565b845260208401935050602081019050612919565b5050509392505050565b600082601f83011261295f5761295e612830565b5b813561296f8482602086016128e1565b91505092915050565b600067ffffffffffffffff82111561299357612992612835565b5b602082029050602081019050919050565b60006129b76129b284612978565b612895565b905080838252602082019050602084028301858111156129da576129d96128dc565b5b835b81811015612a0357806129ef8882612728565b8452602084019350506020810190506129dc565b5050509392505050565b600082601f830112612a2257612a21612830565b5b8135612a328482602086016129a4565b91505092915050565b60008060408385031215612a5257612a5161269f565b5b600083013567ffffffffffffffff811115612a7057612a6f6126a4565b5b612a7c8582860161294a565b925050602083013567ffffffffffffffff811115612a9d57612a9c6126a4565b5b612aa985828601612a0d565b9150509250929050565b600060ff82169050919050565b612ac981612ab3565b82525050565b6000602082019050612ae46000830184612ac0565b92915050565b600060208284031215612b0057612aff61269f565b5b6000612b0e848285016126f2565b91505092915050565b600060208284031215612b2d57612b2c61269f565b5b6000612b3b84828501612728565b91505092915050565b600080fd5b600067ffffffffffffffff821115612b6457612b63612835565b5b612b6d82612629565b9050602081019050919050565b82818337600083830152505050565b6000612b9c612b9784612b49565b612895565b905082815260208101848484011115612bb857612bb7612b44565b5b612bc3848285612b7a565b509392505050565b600082601f830112612be057612bdf612830565b5b8135612bf0848260208601612b89565b91505092915050565b60008060408385031215612c1057612c0f61269f565b5b6000612c1e858286016126f2565b925050602083013567ffffffffffffffff811115612c3f57612c3e6126a4565b5b612c4b85828601612bcb565b9150509250929050565b6000819050919050565b612c6881612c55565b82525050565b6000602082019050612c836000830184612c5f565b92915050565b612c92816126c9565b82525050565b6000602082019050612cad6000830184612c89565b92915050565b60008060408385031215612cca57612cc961269f565b5b6000612cd8858286016126f2565b9250506020612ce9858286016126f2565b9150509250929050565b7f4e487b7100000000000000000000000000000000000000000000000000000000600052602260045260246000fd5b60006002820490506001821680612d3a57607f821691505b60208210811415612d4e57612d4d612cf3565b5b50919050565b7f4f776e61626c653a2063616c6c6572206973206e6f7420746865206f776e6572600082015250565b6000612d8a6020836125e5565b9150612d9582612d54565b602082019050919050565b60006020820190508181036000830152612db981612d7d565b9050919050565b7f4e487b7100000000000000000000000000000000000000000000000000000000600052603260045260246000fd5b7f4e487b7100000000000000000000000000000000000000000000000000000000600052601160045260246000fd5b6000612e2982612707565b9150612e3483612707565b9250827fffffffffffffffffffffffffffffffffffffffffffffffffffffffffffffffff03821115612e6957612e68612def565b5b828201905092915050565b6000612e7f82612707565b91507fffffffffffffffffffffffffffffffffffffffffffffffffffffffffffffffff821415612eb257612eb1612def565b5b600182019050919050565b7f496e76616c696420696e70757400000000000000000000000000000000000000600082015250565b6000612ef3600d836125e5565b9150612efe82612ebd565b602082019050919050565b60006020820190508181036000830152612f2281612ee6565b9050919050565b7f46756e6374696f6e206d7573742062652063616c6c6564207468726f7567682060008201527f64656c656761746563616c6c0000000000000000000000000000000000000000602082015250565b6000612f85602c836125e5565b9150612f9082612f29565b604082019050919050565b60006020820190508181036000830152612fb481612f78565b9050919050565b7f46756e6374696f6e206d7573742062652063616c6c6564207468726f7567682060008201527f6163746976652070726f78790000000000000000000000000000000000000000602082015250565b6000613017602c836125e5565b915061302282612fbb565b604082019050919050565b600060208201905081810360008301526130468161300a565b9050919050565b7f555550535570677261646561626c653a206d757374206e6f742062652063616c60008201527f6c6564207468726f7567682064656c656761746563616c6c0000000000000000602082015250565b60006130a96038836125e5565b91506130b48261304d565b604082019050919050565b600060208201905081810360008301526130d88161309c565b9050919050565b6000819050919050565b6000819050919050565b600061310e613109613104846130df565b6130e9565b612ab3565b9050919050565b61311e816130f3565b82525050565b60006020820190506131396000830184613115565b92915050565b7f45524332303a2064656372656173656420616c6c6f77616e63652062656c6f7760008201527f207a65726f000000000000000000000000000000000000000000000000000000602082015250565b600061319b6025836125e5565b91506131a68261313f565b604082019050919050565b600060208201905081810360008301526131ca8161318e565b9050919050565b7f4f776e61626c653a206e6577206f776e657220697320746865207a65726f206160008201527f6464726573730000000000000000000000000000000000000000000000000000602082015250565b600061322d6026836125e5565b9150613238826131d1565b604082019050919050565b6000602082019050818103600083015261325c81613220565b9050919050565b7f45524332303a20617070726f76652066726f6d20746865207a65726f2061646460008201527f7265737300000000000000000000000000000000000000000000000000000000602082015250565b60006132bf6024836125e5565b91506132ca82613263565b604082019050919050565b600060208201905081810360008301526132ee816132b2565b9050919050565b7f45524332303a20617070726f766520746f20746865207a65726f20616464726560008201527f7373000000000000000000000000000000000000000000000000000000000000602082015250565b60006133516022836125e5565b915061335c826132f5565b604082019050919050565b6000602082019050818103600083015261338081613344565b9050919050565b7f45524332303a20696e73756666696369656e7420616c6c6f77616e6365000000600082015250565b60006133bd601d836125e5565b91506133c882613387565b602082019050919050565b600060208201905081810360008301526133ec816133b0565b9050919050565b7f45524332303a207472616e736665722066726f6d20746865207a65726f20616460008201527f6472657373000000000000000000000000000000000000000000000000000000602082015250565b600061344f6025836125e5565b915061345a826133f3565b604082019050919050565b6000602082019050818103600083015261347e81613442565b9050919050565b7f45524332303a207472616e7366657220746f20746865207a65726f206164647260008201527f6573730000000000000000000000000000000000000000000000000000000000602082015250565b60006134e16023836125e5565b91506134ec82613485565b604082019050919050565b60006020820190508181036000830152613510816134d4565b9050919050565b7f45524332303a207472616e7366657220616d6f756e742065786365656473206260008201527f616c616e63650000000000000000000000000000000000000000000000000000602082015250565b60006135736026836125e5565b915061357e82613517565b604082019050919050565b600060208201905081810360008301526135a281613566565b9050919050565b7f496e76616c6964206974656d20696e7075740000000000000000000000000000600082015250565b60006135df6012836125e5565b91506135ea826135a9565b602082019050919050565b6000602082019050818103600083015261360e816135d2565b9050919050565b61361e81612c55565b811461362957600080fd5b50565b60008151905061363b81613615565b92915050565b6000602082840312156136575761365661269f565b5b60006136658482850161362c565b91505092915050565b7f45524331393637557067726164653a206e657720696d706c656d656e7461746960008201527f6f6e206973206e6f742055555053000000000000000000000000000000000000602082015250565b60006136ca602e836125e5565b91506136d58261366e565b604082019050919050565b600060208201905081810360008301526136f9816136bd565b9050919050565b7f45524331393637557067726164653a20756e737570706f727465642070726f7860008201527f6961626c65555549440000000000000000000000000000000000000000000000602082015250565b600061375c6029836125e5565b915061376782613700565b604082019050919050565b6000602082019050818103600083015261378b8161374f565b9050919050565b7f45524332303a206275726e2066726f6d20746865207a65726f2061646472657360008201527f7300000000000000000000000000000000000000000000000000000000000000602082015250565b60006137ee6021836125e5565b91506137f982613792565b604082019050919050565b6000602082019050818103600083015261381d816137e1565b9050919050565b7f45524332303a206275726e20616d6f756e7420657863656564732062616c616e60008201527f6365000000000000000000000000000000000000000000000000000000000000602082015250565b60006138806022836125e5565b915061388b82613824565b604082019050919050565b600060208201905081810360008301526138af81613873565b9050919050565b60006138c182612707565b91506138cc83612707565b9250828210156138df576138de612def565b5b828203905092915050565b7f496e697469616c697a61626c653a20636f6e747261637420697320616c72656160008201527f647920696e697469616c697a6564000000000000000000000000000000000000602082015250565b6000613946602e836125e5565b9150613951826138ea565b604082019050919050565b6000602082019050818103600083015261397581613939565b9050919050565b7f496e697469616c697a61626c653a20636f6e7472616374206973206e6f74206960008201527f6e697469616c697a696e67000000000000000000000000000000000000000000602082015250565b60006139d8602b836125e5565b91506139e38261397c565b604082019050919050565b60006020820190508181036000830152613a07816139cb565b9050919050565b6000613a1982612707565b9150613a2483612707565b9250817fffffffffffffffffffffffffffffffffffffffffffffffffffffffffffffffff0483118215151615613a5d57613a5c612def565b5b828202905092915050565b7f4e487b7100000000000000000000000000000000000000000000000000000000600052601260045260246000fd5b6000613aa282612707565b9150613aad83612707565b925082613abd57613abc613a68565b5b828204905092915050565b7f45524332303a206d696e7420746f20746865207a65726f206164647265737300600082015250565b6000613afe601f836125e5565b9150613b0982613ac8565b602082019050919050565b60006020820190508181036000830152613b2d81613af1565b9050919050565b7f455243313936373a206e657720696d706c656d656e746174696f6e206973206e60008201527f6f74206120636f6e747261637400000000000000000000000000000000000000602082015250565b6000613b90602d836125e5565b9150613b9b82613b34565b604082019050919050565b60006020820190508181036000830152613bbf81613b83565b9050919050565b7f416464726573733a2064656c65676174652063616c6c20746f206e6f6e2d636f60008201527f6e74726163740000000000000000000000000000000000000000000000000000602082015250565b6000613c226026836125e5565b9150613c2d82613bc6565b604082019050919050565b60006020820190508181036000830152613c5181613c15565b9050919050565b600081519050919050565b600081905092915050565b6000613c7982613c58565b613c838185613c63565b9350613c938185602086016125f6565b80840191505092915050565b6000613cab8284613c6e565b91508190509291505056fe416464726573733a206c6f772d6c6576656c2064656c65676174652063616c6c206661696c6564a2646970667358221220a5fc502a1f2ecddf8ba227e6eeed548a3e2fe437ebebabbe36172afc5dd21fdc64736f6c63430008090033",
  "linkReferences": {},
  "deployedLinkReferences": {}
}