{
    "_format": "hh-sol-artifact-1",
    "contractName": "UpgradeableForwarder",
    "sourceName": "src/contracts/UpgradeableForwarder.sol",
    "abi": [
        {
            "inputs": [],
            "stateMutability": "nonpayable",
            "type": "constructor"
        },
        {
            "anonymous": false,
            "inputs": [
                {
                    "indexed": false,
                    "internalType": "address",
                    "name": "previousAdmin",
                    "type": "address"
                },
                {
                    "indexed": false,
                    "internalType": "address",
                    "name": "newAdmin",
                    "type": "address"
                }
            ],
            "name": "AdminChanged",
            "type": "event"
        },
        {
            "anonymous": false,
            "inputs": [
                {
                    "indexed": true,
                    "internalType": "address",
                    "name": "beacon",
                    "type": "address"
                }
            ],
            "name": "BeaconUpgraded",
            "type": "event"
        },
        {
            "anonymous": false,
            "inputs": [
                {
                    "indexed": false,
                    "internalType": "uint8",
                    "name": "version",
                    "type": "uint8"
                }
            ],
            "name": "Initialized",
            "type": "event"
        },
        {
            "anonymous": false,
            "inputs": [
                {
                    "indexed": true,
                    "internalType": "address",
                    "name": "previousOwner",
                    "type": "address"
                },
                {
                    "indexed": true,
                    "internalType": "address",
                    "name": "newOwner",
                    "type": "address"
                }
            ],
            "name": "OwnershipTransferred",
            "type": "event"
        },
        {
            "anonymous": false,
            "inputs": [
                {
                    "indexed": true,
                    "internalType": "address",
                    "name": "implementation",
                    "type": "address"
                }
            ],
            "name": "Upgraded",
            "type": "event"
        },
        {
            "inputs": [
                {
                    "components": [
                        {
                            "internalType": "address",
                            "name": "from",
                            "type": "address"
                        },
                        {
                            "internalType": "address",
                            "name": "to",
                            "type": "address"
                        },
                        {
                            "internalType": "uint256",
                            "name": "value",
                            "type": "uint256"
                        },
                        {
                            "internalType": "uint256",
                            "name": "gas",
                            "type": "uint256"
                        },
                        {
                            "internalType": "uint256",
                            "name": "nonce",
                            "type": "uint256"
                        },
                        {
                            "internalType": "bytes",
                            "name": "data",
                            "type": "bytes"
                        }
                    ],
                    "internalType": "struct MinimalForwarderUpgradeable.ForwardRequest",
                    "name": "req",
                    "type": "tuple"
                },
                {
                    "internalType": "bytes",
                    "name": "signature",
                    "type": "bytes"
                }
            ],
            "name": "execute",
            "outputs": [
                {
                    "internalType": "bool",
                    "name": "",
                    "type": "bool"
                },
                {
                    "internalType": "bytes",
                    "name": "",
                    "type": "bytes"
                }
            ],
            "stateMutability": "payable",
            "type": "function"
        },
        {
            "inputs": [
                {
                    "internalType": "address",
                    "name": "from",
                    "type": "address"
                }
            ],
            "name": "getNonce",
            "outputs": [
                {
                    "internalType": "uint256",
                    "name": "",
                    "type": "uint256"
                }
            ],
            "stateMutability": "view",
            "type": "function"
        },
        {
            "inputs": [],
            "name": "initialize",
            "outputs": [],
            "stateMutability": "nonpayable",
            "type": "function"
        },
        {
            "inputs": [],
            "name": "owner",
            "outputs": [
                {
                    "internalType": "address",
                    "name": "",
                    "type": "address"
                }
            ],
            "stateMutability": "view",
            "type": "function"
        },
        {
            "inputs": [],
            "name": "proxiableUUID",
            "outputs": [
                {
                    "internalType": "bytes32",
                    "name": "",
                    "type": "bytes32"
                }
            ],
            "stateMutability": "view",
            "type": "function"
        },
        {
            "inputs": [],
            "name": "renounceOwnership",
            "outputs": [],
            "stateMutability": "nonpayable",
            "type": "function"
        },
        {
            "inputs": [
                {
                    "internalType": "address",
                    "name": "newOwner",
                    "type": "address"
                }
            ],
            "name": "transferOwnership",
            "outputs": [],
            "stateMutability": "nonpayable",
            "type": "function"
        },
        {
            "inputs": [
                {
                    "internalType": "address",
                    "name": "newImplementation",
                    "type": "address"
                }
            ],
            "name": "upgradeTo",
            "outputs": [],
            "stateMutability": "nonpayable",
            "type": "function"
        },
        {
            "inputs": [
                {
                    "internalType": "address",
                    "name": "newImplementation",
                    "type": "address"
                },
                {
                    "internalType": "bytes",
                    "name": "data",
                    "type": "bytes"
                }
            ],
            "name": "upgradeToAndCall",
            "outputs": [],
            "stateMutability": "payable",
            "type": "function"
        },
        {
            "inputs": [
                {
                    "components": [
                        {
                            "internalType": "address",
                            "name": "from",
                            "type": "address"
                        },
                        {
                            "internalType": "address",
                            "name": "to",
                            "type": "address"
                        },
                        {
                            "internalType": "uint256",
                            "name": "value",
                            "type": "uint256"
                        },
                        {
                            "internalType": "uint256",
                            "name": "gas",
                            "type": "uint256"
                        },
                        {
                            "internalType": "uint256",
                            "name": "nonce",
                            "type": "uint256"
                        },
                        {
                            "internalType": "bytes",
                            "name": "data",
                            "type": "bytes"
                        }
                    ],
                    "internalType": "struct MinimalForwarderUpgradeable.ForwardRequest",
                    "name": "req",
                    "type": "tuple"
                },
                {
                    "internalType": "bytes",
                    "name": "signature",
                    "type": "bytes"
                }
            ],
            "name": "verify",
            "outputs": [
                {
                    "internalType": "bool",
                    "name": "",
                    "type": "bool"
                }
            ],
            "stateMutability": "view",
            "type": "function"
        }
    ],
    "bytecode": "0x60a06040523073ffffffffffffffffffffffffffffffffffffffff1660809073ffffffffffffffffffffffffffffffffffffffff1681525034801561004357600080fd5b50608051612c1861007b6000396000818161027e0152818161030d015281816105b30152818161064201526106f20152612c186000f3fe6080604052600436106100915760003560e01c8063715018a611610059578063715018a6146101745780638129fc1c1461018b5780638da5cb5b146101a2578063bf5d3bdb146101cd578063f2fde38b1461020a57610091565b80632d0335ab146100965780633659cfe6146100d357806347153f82146100fc5780634f1ef2861461012d57806352d1902d14610149575b600080fd5b3480156100a257600080fd5b506100bd60048036038101906100b89190611933565b610233565b6040516100ca9190611979565b60405180910390f35b3480156100df57600080fd5b506100fa60048036038101906100f59190611933565b61027c565b005b61011660048036038101906101119190611a1d565b610405565b604051610124929190611b4d565b60405180910390f35b61014760048036038101906101429190611cad565b6105b1565b005b34801561015557600080fd5b5061015e6106ee565b60405161016b9190611d22565b60405180910390f35b34801561018057600080fd5b506101896107a7565b005b34801561019757600080fd5b506101a061082f565b005b3480156101ae57600080fd5b506101b76108cb565b6040516101c49190611d4c565b60405180910390f35b3480156101d957600080fd5b506101f460048036038101906101ef9190611a1d565b6108f5565b6040516102019190611d67565b60405180910390f35b34801561021657600080fd5b50610231600480360381019061022c9190611933565b610aab565b005b6000603560008373ffffffffffffffffffffffffffffffffffffffff1673ffffffffffffffffffffffffffffffffffffffff168152602001908152602001600020549050919050565b7f000000000000000000000000000000000000000000000000000000000000000073ffffffffffffffffffffffffffffffffffffffff163073ffffffffffffffffffffffffffffffffffffffff16141561030b576040517f08c379a000000000000000000000000000000000000000000000000000000000815260040161030290611e05565b60405180910390fd5b7f000000000000000000000000000000000000000000000000000000000000000073ffffffffffffffffffffffffffffffffffffffff1661034a610ba3565b73ffffffffffffffffffffffffffffffffffffffff16146103a0576040517f08c379a000000000000000000000000000000000000000000000000000000000815260040161039790611e97565b60405180910390fd5b6103a981610bfa565b61040281600067ffffffffffffffff8111156103c8576103c7611b82565b5b6040519080825280601f01601f1916602001820160405280156103fa5781602001600182028036833780820191505090505b506000610c79565b50565b600060606104148585856108f5565b610453576040517f08c379a000000000000000000000000000000000000000000000000000000000815260040161044a90611f29565b60405180910390fd5b600185608001356104649190611f78565b6035600087600001602081019061047b9190611933565b73ffffffffffffffffffffffffffffffffffffffff1673ffffffffffffffffffffffffffffffffffffffff168152602001908152602001600020819055506000808660200160208101906104cf9190611933565b73ffffffffffffffffffffffffffffffffffffffff1687606001358860400135898060a001906104ff9190611fdd565b8b60000160208101906105129190611933565b604051602001610524939291906120b8565b6040516020818303038152906040526040516105409190612113565b600060405180830381858888f193505050503d806000811461057e576040519150601f19603f3d011682016040523d82523d6000602084013e610583565b606091505b5091509150603f87606001356105999190612159565b5a116105a157fe5b8181935093505050935093915050565b7f000000000000000000000000000000000000000000000000000000000000000073ffffffffffffffffffffffffffffffffffffffff163073ffffffffffffffffffffffffffffffffffffffff161415610640576040517f08c379a000000000000000000000000000000000000000000000000000000000815260040161063790611e05565b60405180910390fd5b7f000000000000000000000000000000000000000000000000000000000000000073ffffffffffffffffffffffffffffffffffffffff1661067f610ba3565b73ffffffffffffffffffffffffffffffffffffffff16146106d5576040517f08c379a00000000000000000000000000000000000000000000000000000000081526004016106cc90611e97565b60405180910390fd5b6106de82610bfa565b6106ea82826001610c79565b5050565b60007f000000000000000000000000000000000000000000000000000000000000000073ffffffffffffffffffffffffffffffffffffffff163073ffffffffffffffffffffffffffffffffffffffff161461077e576040517f08c379a0000000000000000000000000000000000000000000000000000000008152600401610775906121fc565b60405180910390fd5b7f360894a13ba1a3210667c828492db98dca3e2076cc3735a920a3ca505d382bbc60001b905090565b6107af610df6565b73ffffffffffffffffffffffffffffffffffffffff166107cd6108cb565b73ffffffffffffffffffffffffffffffffffffffff1614610823576040517f08c379a000000000000000000000000000000000000000000000000000000000815260040161081a90612268565b60405180910390fd5b61082d6000610dfe565b565b600061083b6001610ec4565b9050801561085f576001600060016101000a81548160ff0219169083151502179055505b610867610fb4565b61086f611005565b80156108c85760008060016101000a81548160ff0219169083151502179055507f7f26b83ff96e1f2b6a682f133852f6798a09c465da95921460cefb384740249860016040516108bf91906122da565b60405180910390a15b50565b600060fd60009054906101000a900473ffffffffffffffffffffffffffffffffffffffff16905090565b6000806109fe84848080601f016020809104026020016040519081016040528093929190818152602001838380828437600081840152601f19601f820116905080830192505050505050506109f07fdd8f4b70b0f4393e889bd39128a30628a78b61816a9eb8199759e7a349657e488860000160208101906109779190611933565b89602001602081019061098a9190611933565b8a604001358b606001358c608001358d8060a001906109a99190611fdd565b6040516109b79291906122f5565b60405180910390206040516020016109d5979695949392919061230e565b604051602081830303815290604052805190602001206110ca565b6110e490919063ffffffff16565b9050846080013560356000876000016020810190610a1c9190611933565b73ffffffffffffffffffffffffffffffffffffffff1673ffffffffffffffffffffffffffffffffffffffff16815260200190815260200160002054148015610aa15750846000016020810190610a729190611933565b73ffffffffffffffffffffffffffffffffffffffff168173ffffffffffffffffffffffffffffffffffffffff16145b9150509392505050565b610ab3610df6565b73ffffffffffffffffffffffffffffffffffffffff16610ad16108cb565b73ffffffffffffffffffffffffffffffffffffffff1614610b27576040517f08c379a0000000000000000000000000000000000000000000000000000000008152600401610b1e90612268565b60405180910390fd5b600073ffffffffffffffffffffffffffffffffffffffff168173ffffffffffffffffffffffffffffffffffffffff161415610b97576040517f08c379a0000000000000000000000000000000000000000000000000000000008152600401610b8e906123ef565b60405180910390fd5b610ba081610dfe565b50565b6000610bd17f360894a13ba1a3210667c828492db98dca3e2076cc3735a920a3ca505d382bbc60001b61110b565b60000160009054906101000a900473ffffffffffffffffffffffffffffffffffffffff16905090565b610c02610df6565b73ffffffffffffffffffffffffffffffffffffffff16610c206108cb565b73ffffffffffffffffffffffffffffffffffffffff1614610c76576040517f08c379a0000000000000000000000000000000000000000000000000000000008152600401610c6d90612268565b60405180910390fd5b50565b610ca57f4910fdfa16fed3260ed0e7147f7cc6da11a60208b5b9406d12a635614ffd914360001b611115565b60000160009054906101000a900460ff1615610cc957610cc48361111f565b610df1565b8273ffffffffffffffffffffffffffffffffffffffff166352d1902d6040518163ffffffff1660e01b815260040160206040518083038186803b158015610d0f57600080fd5b505afa925050508015610d4057506040513d601f19601f82011682018060405250810190610d3d919061243b565b60015b610d7f576040517f08c379a0000000000000000000000000000000000000000000000000000000008152600401610d76906124da565b60405180910390fd5b7f360894a13ba1a3210667c828492db98dca3e2076cc3735a920a3ca505d382bbc60001b8114610de4576040517f08c379a0000000000000000000000000000000000000000000000000000000008152600401610ddb9061256c565b60405180910390fd5b50610df08383836111d8565b5b505050565b600033905090565b600060fd60009054906101000a900473ffffffffffffffffffffffffffffffffffffffff1690508160fd60006101000a81548173ffffffffffffffffffffffffffffffffffffffff021916908373ffffffffffffffffffffffffffffffffffffffff1602179055508173ffffffffffffffffffffffffffffffffffffffff168173ffffffffffffffffffffffffffffffffffffffff167f8be0079c531659141344cd1fd0a4f28419497f9722a3daafe3b4186f6b6457e060405160405180910390a35050565b60008060019054906101000a900460ff1615610f3b5760018260ff16148015610ef35750610ef130611204565b155b610f32576040517f08c379a0000000000000000000000000000000000000000000000000000000008152600401610f29906125fe565b60405180910390fd5b60009050610faf565b8160ff1660008054906101000a900460ff1660ff1610610f90576040517f08c379a0000000000000000000000000000000000000000000000000000000008152600401610f87906125fe565b60405180910390fd5b816000806101000a81548160ff021916908360ff160217905550600190505b919050565b600060019054906101000a900460ff16611003576040517f08c379a0000000000000000000000000000000000000000000000000000000008152600401610ffa90612690565b60405180910390fd5b565b600060019054906101000a900460ff16611054576040517f08c379a000000000000000000000000000000000000000000000000000000000815260040161104b90612690565b60405180910390fd5b6110c86040518060400160405280601081526020017f4d696e696d616c466f72776172646572000000000000000000000000000000008152506040518060400160405280600581526020017f302e302e31000000000000000000000000000000000000000000000000000000815250611227565b565b60006110dd6110d76112a2565b836112e2565b9050919050565b60008060006110f38585611315565b9150915061110081611398565b819250505092915050565b6000819050919050565b6000819050919050565b61112881611204565b611167576040517f08c379a000000000000000000000000000000000000000000000000000000000815260040161115e90612722565b60405180910390fd5b806111947f360894a13ba1a3210667c828492db98dca3e2076cc3735a920a3ca505d382bbc60001b61110b565b60000160006101000a81548173ffffffffffffffffffffffffffffffffffffffff021916908373ffffffffffffffffffffffffffffffffffffffff16021790555050565b6111e18361156d565b6000825111806111ee5750805b156111ff576111fd83836115bc565b505b505050565b6000808273ffffffffffffffffffffffffffffffffffffffff163b119050919050565b600060019054906101000a900460ff16611276576040517f08c379a000000000000000000000000000000000000000000000000000000000815260040161126d90612690565b60405180910390fd5b600082805190602001209050600082805190602001209050816001819055508060028190555050505050565b60006112dd7f8b73c3c69bb8fe3d512ecc4cf759cc79239f7b179b0ffacaa9a75d522b39400f6112d06116a0565b6112d86116aa565b6116b4565b905090565b600082826040516020016112f79291906127ba565b60405160208183030381529060405280519060200120905092915050565b6000806041835114156113575760008060006020860151925060408601519150606086015160001a905061134b878285856116ee565b94509450505050611391565b60408351141561138857600080602085015191506040850151905061137d8683836117fb565b935093505050611391565b60006002915091505b9250929050565b600060048111156113ac576113ab6127f1565b5b8160048111156113bf576113be6127f1565b5b14156113ca5761156a565b600160048111156113de576113dd6127f1565b5b8160048111156113f1576113f06127f1565b5b1415611432576040517f08c379a00000000000000000000000000000000000000000000000000000000081526004016114299061286c565b60405180910390fd5b60026004811115611446576114456127f1565b5b816004811115611459576114586127f1565b5b141561149a576040517f08c379a0000000000000000000000000000000000000000000000000000000008152600401611491906128d8565b60405180910390fd5b600360048111156114ae576114ad6127f1565b5b8160048111156114c1576114c06127f1565b5b1415611502576040517f08c379a00000000000000000000000000000000000000000000000000000000081526004016114f99061296a565b60405180910390fd5b600480811115611515576115146127f1565b5b816004811115611528576115276127f1565b5b1415611569576040517f08c379a0000000000000000000000000000000000000000000000000000000008152600401611560906129fc565b60405180910390fd5b5b50565b6115768161111f565b8073ffffffffffffffffffffffffffffffffffffffff167fbc7cd75a20ee27fd9adebab32041f755214dbc6bffa90cc0225b39da2e5c2d3b60405160405180910390a250565b60606115c783611204565b611606576040517f08c379a00000000000000000000000000000000000000000000000000000000081526004016115fd90612a8e565b60405180910390fd5b6000808473ffffffffffffffffffffffffffffffffffffffff168460405161162e9190612113565b600060405180830381855af49150503d8060008114611669576040519150601f19603f3d011682016040523d82523d6000602084013e61166e565b606091505b50915091506116968282604051806060016040528060278152602001612bbc6027913961185a565b9250505092915050565b6000600154905090565b6000600254905090565b600083838346306040516020016116cf959493929190612aae565b6040516020818303038152906040528051906020012090509392505050565b6000807f7fffffffffffffffffffffffffffffff5d576e7357a4501ddfe92f46681b20a08360001c11156117295760006003915091506117f2565b601b8560ff16141580156117415750601c8560ff1614155b156117535760006004915091506117f2565b6000600187878787604051600081526020016040526040516117789493929190612b10565b6020604051602081039080840390855afa15801561179a573d6000803e3d6000fd5b505050602060405103519050600073ffffffffffffffffffffffffffffffffffffffff168173ffffffffffffffffffffffffffffffffffffffff1614156117e9576000600192509250506117f2565b80600092509250505b94509492505050565b60008060007f7fffffffffffffffffffffffffffffffffffffffffffffffffffffffffffffff60001b841690506000601b60ff8660001c901c61183e9190611f78565b905061184c878288856116ee565b935093505050935093915050565b6060831561186a578290506118ba565b60008351111561187d5782518084602001fd5b816040517f08c379a00000000000000000000000000000000000000000000000000000000081526004016118b19190612b99565b60405180910390fd5b9392505050565b6000604051905090565b600080fd5b600080fd5b600073ffffffffffffffffffffffffffffffffffffffff82169050919050565b6000611900826118d5565b9050919050565b611910816118f5565b811461191b57600080fd5b50565b60008135905061192d81611907565b92915050565b600060208284031215611949576119486118cb565b5b60006119578482850161191e565b91505092915050565b6000819050919050565b61197381611960565b82525050565b600060208201905061198e600083018461196a565b92915050565b600080fd5b600060c082840312156119af576119ae611994565b5b81905092915050565b600080fd5b600080fd5b600080fd5b60008083601f8401126119dd576119dc6119b8565b5b8235905067ffffffffffffffff8111156119fa576119f96119bd565b5b602083019150836001820283011115611a1657611a156119c2565b5b9250929050565b600080600060408486031215611a3657611a356118cb565b5b600084013567ffffffffffffffff811115611a5457611a536118d0565b5b611a6086828701611999565b935050602084013567ffffffffffffffff811115611a8157611a806118d0565b5b611a8d868287016119c7565b92509250509250925092565b60008115159050919050565b611aae81611a99565b82525050565b600081519050919050565b600082825260208201905092915050565b60005b83811015611aee578082015181840152602081019050611ad3565b83811115611afd576000848401525b50505050565b6000601f19601f8301169050919050565b6000611b1f82611ab4565b611b298185611abf565b9350611b39818560208601611ad0565b611b4281611b03565b840191505092915050565b6000604082019050611b626000830185611aa5565b8181036020830152611b748184611b14565b90509392505050565b600080fd5b7f4e487b7100000000000000000000000000000000000000000000000000000000600052604160045260246000fd5b611bba82611b03565b810181811067ffffffffffffffff82111715611bd957611bd8611b82565b5b80604052505050565b6000611bec6118c1565b9050611bf88282611bb1565b919050565b600067ffffffffffffffff821115611c1857611c17611b82565b5b611c2182611b03565b9050602081019050919050565b82818337600083830152505050565b6000611c50611c4b84611bfd565b611be2565b905082815260208101848484011115611c6c57611c6b611b7d565b5b611c77848285611c2e565b509392505050565b600082601f830112611c9457611c936119b8565b5b8135611ca4848260208601611c3d565b91505092915050565b60008060408385031215611cc457611cc36118cb565b5b6000611cd28582860161191e565b925050602083013567ffffffffffffffff811115611cf357611cf26118d0565b5b611cff85828601611c7f565b9150509250929050565b6000819050919050565b611d1c81611d09565b82525050565b6000602082019050611d376000830184611d13565b92915050565b611d46816118f5565b82525050565b6000602082019050611d616000830184611d3d565b92915050565b6000602082019050611d7c6000830184611aa5565b92915050565b600082825260208201905092915050565b7f46756e6374696f6e206d7573742062652063616c6c6564207468726f7567682060008201527f64656c656761746563616c6c0000000000000000000000000000000000000000602082015250565b6000611def602c83611d82565b9150611dfa82611d93565b604082019050919050565b60006020820190508181036000830152611e1e81611de2565b9050919050565b7f46756e6374696f6e206d7573742062652063616c6c6564207468726f7567682060008201527f6163746976652070726f78790000000000000000000000000000000000000000602082015250565b6000611e81602c83611d82565b9150611e8c82611e25565b604082019050919050565b60006020820190508181036000830152611eb081611e74565b9050919050565b7f4d696e696d616c466f727761726465723a207369676e617475726520646f657360008201527f206e6f74206d6174636820726571756573740000000000000000000000000000602082015250565b6000611f13603283611d82565b9150611f1e82611eb7565b604082019050919050565b60006020820190508181036000830152611f4281611f06565b9050919050565b7f4e487b7100000000000000000000000000000000000000000000000000000000600052601160045260246000fd5b6000611f8382611960565b9150611f8e83611960565b9250827fffffffffffffffffffffffffffffffffffffffffffffffffffffffffffffffff03821115611fc357611fc2611f49565b5b828201905092915050565b600080fd5b600080fd5b600080fd5b60008083356001602003843603038112611ffa57611ff9611fce565b5b80840192508235915067ffffffffffffffff82111561201c5761201b611fd3565b5b60208301925060018202360383131561203857612037611fd8565b5b509250929050565b600081905092915050565b60006120578385612040565b9350612064838584611c2e565b82840190509392505050565b60008160601b9050919050565b600061208882612070565b9050919050565b600061209a8261207d565b9050919050565b6120b26120ad826118f5565b61208f565b82525050565b60006120c582858761204b565b91506120d182846120a1565b601482019150819050949350505050565b60006120ed82611ab4565b6120f78185612040565b9350612107818560208601611ad0565b80840191505092915050565b600061211f82846120e2565b915081905092915050565b7f4e487b7100000000000000000000000000000000000000000000000000000000600052601260045260246000fd5b600061216482611960565b915061216f83611960565b92508261217f5761217e61212a565b5b828204905092915050565b7f555550535570677261646561626c653a206d757374206e6f742062652063616c60008201527f6c6564207468726f7567682064656c656761746563616c6c0000000000000000602082015250565b60006121e6603883611d82565b91506121f18261218a565b604082019050919050565b60006020820190508181036000830152612215816121d9565b9050919050565b7f4f776e61626c653a2063616c6c6572206973206e6f7420746865206f776e6572600082015250565b6000612252602083611d82565b915061225d8261221c565b602082019050919050565b6000602082019050818103600083015261228181612245565b9050919050565b6000819050919050565b600060ff82169050919050565b6000819050919050565b60006122c46122bf6122ba84612288565b61229f565b612292565b9050919050565b6122d4816122a9565b82525050565b60006020820190506122ef60008301846122cb565b92915050565b600061230282848661204b565b91508190509392505050565b600060e082019050612323600083018a611d13565b6123306020830189611d3d565b61233d6040830188611d3d565b61234a606083018761196a565b612357608083018661196a565b61236460a083018561196a565b61237160c0830184611d13565b98975050505050505050565b7f4f776e61626c653a206e6577206f776e657220697320746865207a65726f206160008201527f6464726573730000000000000000000000000000000000000000000000000000602082015250565b60006123d9602683611d82565b91506123e48261237d565b604082019050919050565b60006020820190508181036000830152612408816123cc565b9050919050565b61241881611d09565b811461242357600080fd5b50565b6000815190506124358161240f565b92915050565b600060208284031215612451576124506118cb565b5b600061245f84828501612426565b91505092915050565b7f45524331393637557067726164653a206e657720696d706c656d656e7461746960008201527f6f6e206973206e6f742055555053000000000000000000000000000000000000602082015250565b60006124c4602e83611d82565b91506124cf82612468565b604082019050919050565b600060208201905081810360008301526124f3816124b7565b9050919050565b7f45524331393637557067726164653a20756e737570706f727465642070726f7860008201527f6961626c65555549440000000000000000000000000000000000000000000000602082015250565b6000612556602983611d82565b9150612561826124fa565b604082019050919050565b6000602082019050818103600083015261258581612549565b9050919050565b7f496e697469616c697a61626c653a20636f6e747261637420697320616c72656160008201527f647920696e697469616c697a6564000000000000000000000000000000000000602082015250565b60006125e8602e83611d82565b91506125f38261258c565b604082019050919050565b60006020820190508181036000830152612617816125db565b9050919050565b7f496e697469616c697a61626c653a20636f6e7472616374206973206e6f74206960008201527f6e697469616c697a696e67000000000000000000000000000000000000000000602082015250565b600061267a602b83611d82565b91506126858261261e565b604082019050919050565b600060208201905081810360008301526126a98161266d565b9050919050565b7f455243313936373a206e657720696d706c656d656e746174696f6e206973206e60008201527f6f74206120636f6e747261637400000000000000000000000000000000000000602082015250565b600061270c602d83611d82565b9150612717826126b0565b604082019050919050565b6000602082019050818103600083015261273b816126ff565b9050919050565b600081905092915050565b7f1901000000000000000000000000000000000000000000000000000000000000600082015250565b6000612783600283612742565b915061278e8261274d565b600282019050919050565b6000819050919050565b6127b46127af82611d09565b612799565b82525050565b60006127c582612776565b91506127d182856127a3565b6020820191506127e182846127a3565b6020820191508190509392505050565b7f4e487b7100000000000000000000000000000000000000000000000000000000600052602160045260246000fd5b7f45434453413a20696e76616c6964207369676e61747572650000000000000000600082015250565b6000612856601883611d82565b915061286182612820565b602082019050919050565b6000602082019050818103600083015261288581612849565b9050919050565b7f45434453413a20696e76616c6964207369676e6174757265206c656e67746800600082015250565b60006128c2601f83611d82565b91506128cd8261288c565b602082019050919050565b600060208201905081810360008301526128f1816128b5565b9050919050565b7f45434453413a20696e76616c6964207369676e6174757265202773272076616c60008201527f7565000000000000000000000000000000000000000000000000000000000000602082015250565b6000612954602283611d82565b915061295f826128f8565b604082019050919050565b6000602082019050818103600083015261298381612947565b9050919050565b7f45434453413a20696e76616c6964207369676e6174757265202776272076616c60008201527f7565000000000000000000000000000000000000000000000000000000000000602082015250565b60006129e6602283611d82565b91506129f18261298a565b604082019050919050565b60006020820190508181036000830152612a15816129d9565b9050919050565b7f416464726573733a2064656c65676174652063616c6c20746f206e6f6e2d636f60008201527f6e74726163740000000000000000000000000000000000000000000000000000602082015250565b6000612a78602683611d82565b9150612a8382612a1c565b604082019050919050565b60006020820190508181036000830152612aa781612a6b565b9050919050565b600060a082019050612ac36000830188611d13565b612ad06020830187611d13565b612add6040830186611d13565b612aea606083018561196a565b612af76080830184611d3d565b9695505050505050565b612b0a81612292565b82525050565b6000608082019050612b256000830187611d13565b612b326020830186612b01565b612b3f6040830185611d13565b612b4c6060830184611d13565b95945050505050565b600081519050919050565b6000612b6b82612b55565b612b758185611d82565b9350612b85818560208601611ad0565b612b8e81611b03565b840191505092915050565b60006020820190508181036000830152612bb38184612b60565b90509291505056fe416464726573733a206c6f772d6c6576656c2064656c65676174652063616c6c206661696c6564a2646970667358221220c75405b414a12d4ecd8636a58daca1780e2cbca95f9d119e69e27fc040f57fcf64736f6c63430008090033",
    "linkReferences": {},
    "deployedLinkReferences": {}
}